{
  "_format": "hh-sol-artifact-1",
  "contractName": "PitchPFP",
  "sourceName": "contracts/PitchPFP.sol",
  "abi": [
    {
      "inputs": [],
      "stateMutability": "nonpayable",
      "type": "constructor"
    },
    {
      "inputs": [],
      "name": "ApprovalCallerNotOwnerNorApproved",
      "type": "error"
    },
    {
      "inputs": [],
      "name": "ApprovalQueryForNonexistentToken",
      "type": "error"
    },
    {
      "inputs": [],
      "name": "BalanceQueryForZeroAddress",
      "type": "error"
    },
    {
      "inputs": [],
      "name": "CanNotExceedMaxSupply",
      "type": "error"
    },
    {
      "inputs": [],
      "name": "EmergencyNotActive",
      "type": "error"
    },
    {
      "inputs": [],
      "name": "InsufficientValue",
      "type": "error"
    },
    {
      "inputs": [],
      "name": "MaxPerWalletExceeded",
      "type": "error"
    },
    {
      "inputs": [],
      "name": "MaxSupplyExceeded",
      "type": "error"
    },
    {
      "inputs": [],
      "name": "MintERC2309QuantityExceedsLimit",
      "type": "error"
    },
    {
      "inputs": [],
      "name": "MintToZeroAddress",
      "type": "error"
    },
    {
      "inputs": [],
      "name": "MintZeroQuantity",
      "type": "error"
    },
    {
      "inputs": [],
      "name": "NoContracts",
      "type": "error"
    },
    {
      "inputs": [],
      "name": "NotAllowlisted",
      "type": "error"
    },
    {
      "inputs": [],
      "name": "NotTheDev",
      "type": "error"
    },
    {
      "inputs": [
        {
          "internalType": "address",
          "name": "operator",
          "type": "address"
        }
      ],
      "name": "OperatorNotAllowed",
      "type": "error"
    },
    {
      "inputs": [],
      "name": "OwnerQueryForNonexistentToken",
      "type": "error"
    },
    {
      "inputs": [],
      "name": "OwnershipNotInitializedForExtraData",
      "type": "error"
    },
    {
      "inputs": [],
      "name": "PreSaleNotActive",
      "type": "error"
    },
    {
      "inputs": [],
      "name": "PublicSaleNotActive",
      "type": "error"
    },
    {
      "inputs": [],
      "name": "SupplyLocked",
      "type": "error"
    },
    {
      "inputs": [],
      "name": "TransferCallerNotOwnerNorApproved",
      "type": "error"
    },
    {
      "inputs": [],
      "name": "TransferFromIncorrectOwner",
      "type": "error"
    },
    {
      "inputs": [],
      "name": "TransferToNonERC721ReceiverImplementer",
      "type": "error"
    },
    {
      "inputs": [],
      "name": "TransferToZeroAddress",
      "type": "error"
    },
    {
      "inputs": [],
      "name": "URIQueryForNonexistentToken",
      "type": "error"
    },
    {
      "anonymous": false,
      "inputs": [
        {
          "indexed": true,
          "internalType": "address",
          "name": "owner",
          "type": "address"
        },
        {
          "indexed": true,
          "internalType": "address",
          "name": "approved",
          "type": "address"
        },
        {
          "indexed": true,
          "internalType": "uint256",
          "name": "tokenId",
          "type": "uint256"
        }
      ],
      "name": "Approval",
      "type": "event"
    },
    {
      "anonymous": false,
      "inputs": [
        {
          "indexed": true,
          "internalType": "address",
          "name": "owner",
          "type": "address"
        },
        {
          "indexed": true,
          "internalType": "address",
          "name": "operator",
          "type": "address"
        },
        {
          "indexed": false,
          "internalType": "bool",
          "name": "approved",
          "type": "bool"
        }
      ],
      "name": "ApprovalForAll",
      "type": "event"
    },
    {
      "anonymous": false,
      "inputs": [
        {
          "indexed": true,
          "internalType": "uint256",
          "name": "fromTokenId",
          "type": "uint256"
        },
        {
          "indexed": false,
          "internalType": "uint256",
          "name": "toTokenId",
          "type": "uint256"
        },
        {
          "indexed": true,
          "internalType": "address",
          "name": "from",
          "type": "address"
        },
        {
          "indexed": true,
          "internalType": "address",
          "name": "to",
          "type": "address"
        }
      ],
      "name": "ConsecutiveTransfer",
      "type": "event"
    },
    {
      "anonymous": false,
      "inputs": [
        {
          "indexed": true,
          "internalType": "address",
          "name": "previousOwner",
          "type": "address"
        },
        {
          "indexed": true,
          "internalType": "address",
          "name": "newOwner",
          "type": "address"
        }
      ],
      "name": "OwnershipTransferred",
      "type": "event"
    },
    {
      "anonymous": false,
      "inputs": [
        {
          "indexed": true,
          "internalType": "address",
          "name": "from",
          "type": "address"
        },
        {
          "indexed": true,
          "internalType": "address",
          "name": "to",
          "type": "address"
        },
        {
          "indexed": true,
          "internalType": "uint256",
          "name": "tokenId",
          "type": "uint256"
        }
      ],
      "name": "Transfer",
      "type": "event"
    },
    {
      "inputs": [],
      "name": "OPERATOR_FILTER_REGISTRY",
      "outputs": [
        {
          "internalType": "contract IOperatorFilterRegistry",
          "name": "",
          "type": "address"
        }
      ],
      "stateMutability": "view",
      "type": "function"
    },
    {
      "inputs": [],
      "name": "amountOwedtoDev",
      "outputs": [
        {
          "internalType": "uint256",
          "name": "",
          "type": "uint256"
        }
      ],
      "stateMutability": "view",
      "type": "function"
    },
    {
      "inputs": [
        {
          "internalType": "address",
          "name": "to",
          "type": "address"
        },
        {
          "internalType": "uint256",
          "name": "tokenId",
          "type": "uint256"
        }
      ],
      "name": "approve",
      "outputs": [],
      "stateMutability": "payable",
      "type": "function"
    },
    {
      "inputs": [
        {
          "internalType": "address",
          "name": "owner",
          "type": "address"
        }
      ],
      "name": "balanceOf",
      "outputs": [
        {
          "internalType": "uint256",
          "name": "",
          "type": "uint256"
        }
      ],
      "stateMutability": "view",
      "type": "function"
    },
    {
      "inputs": [],
      "name": "emergencyActive",
      "outputs": [
        {
          "internalType": "bool",
          "name": "",
          "type": "bool"
        }
      ],
      "stateMutability": "view",
      "type": "function"
    },
    {
      "inputs": [],
      "name": "emergencyWithdraw",
      "outputs": [],
      "stateMutability": "nonpayable",
      "type": "function"
    },
    {
      "inputs": [],
      "name": "freezeSupply",
      "outputs": [],
      "stateMutability": "nonpayable",
      "type": "function"
    },
    {
      "inputs": [
        {
          "internalType": "uint256",
          "name": "tokenId",
          "type": "uint256"
        }
      ],
      "name": "getApproved",
      "outputs": [
        {
          "internalType": "address",
          "name": "",
          "type": "address"
        }
      ],
      "stateMutability": "view",
      "type": "function"
    },
    {
      "inputs": [
        {
          "internalType": "address",
          "name": "owner",
          "type": "address"
        },
        {
          "internalType": "address",
          "name": "operator",
          "type": "address"
        }
      ],
      "name": "isApprovedForAll",
      "outputs": [
        {
          "internalType": "bool",
          "name": "",
          "type": "bool"
        }
      ],
      "stateMutability": "view",
      "type": "function"
    },
    {
      "inputs": [
        {
          "internalType": "address",
          "name": "_user",
          "type": "address"
        },
        {
          "internalType": "bytes32[]",
          "name": "_proof",
          "type": "bytes32[]"
        }
      ],
      "name": "isValid",
      "outputs": [
        {
          "internalType": "bool",
          "name": "",
          "type": "bool"
        }
      ],
      "stateMutability": "view",
      "type": "function"
    },
    {
      "inputs": [],
      "name": "maxMintAmount",
      "outputs": [
        {
          "internalType": "uint8",
          "name": "",
          "type": "uint8"
        }
      ],
      "stateMutability": "view",
      "type": "function"
    },
    {
      "inputs": [],
      "name": "maxSupply",
      "outputs": [
        {
          "internalType": "uint256",
          "name": "",
          "type": "uint256"
        }
      ],
      "stateMutability": "view",
      "type": "function"
    },
    {
      "inputs": [],
      "name": "maxSupplyForPresale",
      "outputs": [
        {
          "internalType": "uint256",
          "name": "",
          "type": "uint256"
        }
      ],
      "stateMutability": "view",
      "type": "function"
    },
    {
      "inputs": [
        {
          "internalType": "uint8",
          "name": "_amount",
          "type": "uint8"
        }
      ],
      "name": "mint",
      "outputs": [],
      "stateMutability": "payable",
      "type": "function"
    },
    {
      "inputs": [],
      "name": "name",
      "outputs": [
        {
          "internalType": "string",
          "name": "",
          "type": "string"
        }
      ],
      "stateMutability": "view",
      "type": "function"
    },
    {
      "inputs": [],
      "name": "owner",
      "outputs": [
        {
          "internalType": "address",
          "name": "",
          "type": "address"
        }
      ],
      "stateMutability": "view",
      "type": "function"
    },
    {
      "inputs": [
        {
          "internalType": "uint256",
          "name": "tokenId",
          "type": "uint256"
        }
      ],
      "name": "ownerOf",
      "outputs": [
        {
          "internalType": "address",
          "name": "",
          "type": "address"
        }
      ],
      "stateMutability": "view",
      "type": "function"
    },
    {
      "inputs": [],
      "name": "presaleActive",
      "outputs": [
        {
          "internalType": "bool",
          "name": "",
          "type": "bool"
        }
      ],
      "stateMutability": "view",
      "type": "function"
    },
    {
      "inputs": [],
      "name": "presaleCost",
      "outputs": [
        {
          "internalType": "uint256",
          "name": "",
          "type": "uint256"
        }
      ],
      "stateMutability": "view",
      "type": "function"
    },
    {
      "inputs": [
        {
          "internalType": "uint8",
          "name": "_amount",
          "type": "uint8"
        },
        {
          "internalType": "bytes32[]",
          "name": "_proof",
          "type": "bytes32[]"
        }
      ],
      "name": "presaleMint",
      "outputs": [],
      "stateMutability": "payable",
      "type": "function"
    },
    {
      "inputs": [],
      "name": "publicCost",
      "outputs": [
        {
          "internalType": "uint256",
          "name": "",
          "type": "uint256"
        }
      ],
      "stateMutability": "view",
      "type": "function"
    },
    {
      "inputs": [],
      "name": "publicSaleActive",
      "outputs": [
        {
          "internalType": "bool",
          "name": "",
          "type": "bool"
        }
      ],
      "stateMutability": "view",
      "type": "function"
    },
    {
      "inputs": [],
      "name": "renounceOwnership",
      "outputs": [],
      "stateMutability": "nonpayable",
      "type": "function"
    },
    {
      "inputs": [
        {
          "internalType": "address",
          "name": "from",
          "type": "address"
        },
        {
          "internalType": "address",
          "name": "to",
          "type": "address"
        },
        {
          "internalType": "uint256",
          "name": "tokenId",
          "type": "uint256"
        }
      ],
      "name": "safeTransferFrom",
      "outputs": [],
      "stateMutability": "payable",
      "type": "function"
    },
    {
      "inputs": [
        {
          "internalType": "address",
          "name": "from",
          "type": "address"
        },
        {
          "internalType": "address",
          "name": "to",
          "type": "address"
        },
        {
          "internalType": "uint256",
          "name": "tokenId",
          "type": "uint256"
        },
        {
          "internalType": "bytes",
          "name": "data",
          "type": "bytes"
        }
      ],
      "name": "safeTransferFrom",
      "outputs": [],
      "stateMutability": "payable",
      "type": "function"
    },
    {
      "inputs": [
        {
          "internalType": "address",
          "name": "operator",
          "type": "address"
        },
        {
          "internalType": "bool",
          "name": "approved",
          "type": "bool"
        }
      ],
      "name": "setApprovalForAll",
      "outputs": [],
      "stateMutability": "nonpayable",
      "type": "function"
    },
    {
      "inputs": [
        {
          "internalType": "string",
          "name": "baseURI",
          "type": "string"
        }
      ],
      "name": "setBaseURI",
      "outputs": [],
      "stateMutability": "nonpayable",
      "type": "function"
    },
    {
      "inputs": [
        {
          "internalType": "uint8",
          "name": "_maxMintAmount",
          "type": "uint8"
        }
      ],
      "name": "setMaxMintAmount",
      "outputs": [],
      "stateMutability": "nonpayable",
      "type": "function"
    },
    {
      "inputs": [
        {
          "internalType": "uint256",
          "name": "_maxSupply",
          "type": "uint256"
        }
      ],
      "name": "setMaxSupply",
      "outputs": [],
      "stateMutability": "nonpayable",
      "type": "function"
    },
    {
      "inputs": [
        {
          "internalType": "uint256",
          "name": "_maxSupplyForPresale",
          "type": "uint256"
        }
      ],
      "name": "setMaxSupplyForPresale",
      "outputs": [],
      "stateMutability": "nonpayable",
      "type": "function"
    },
    {
      "inputs": [
        {
          "internalType": "uint256",
          "name": "_newPreSaleCost",
          "type": "uint256"
        }
      ],
      "name": "setPreSaleCost",
      "outputs": [],
      "stateMutability": "nonpayable",
      "type": "function"
    },
    {
      "inputs": [
        {
          "internalType": "bytes32",
          "name": "_presaleMerkleRoot",
          "type": "bytes32"
        }
      ],
      "name": "setPresaleMerkleRoot",
      "outputs": [],
      "stateMutability": "nonpayable",
      "type": "function"
    },
    {
      "inputs": [
        {
          "internalType": "uint256",
          "name": "_newPublicCost",
          "type": "uint256"
        }
      ],
      "name": "setPublicSaleCost",
      "outputs": [],
      "stateMutability": "nonpayable",
      "type": "function"
    },
    {
      "inputs": [],
      "name": "supplyLocked",
      "outputs": [
        {
          "internalType": "bool",
          "name": "",
          "type": "bool"
        }
      ],
      "stateMutability": "view",
      "type": "function"
    },
    {
      "inputs": [
        {
          "internalType": "bytes4",
          "name": "interfaceId",
          "type": "bytes4"
        }
      ],
      "name": "supportsInterface",
      "outputs": [
        {
          "internalType": "bool",
          "name": "",
          "type": "bool"
        }
      ],
      "stateMutability": "view",
      "type": "function"
    },
    {
      "inputs": [],
      "name": "symbol",
      "outputs": [
        {
          "internalType": "string",
          "name": "",
          "type": "string"
        }
      ],
      "stateMutability": "view",
      "type": "function"
    },
    {
      "inputs": [],
      "name": "toggleEmergencyActive",
      "outputs": [],
      "stateMutability": "nonpayable",
      "type": "function"
    },
    {
      "inputs": [],
      "name": "togglePresale",
      "outputs": [],
      "stateMutability": "nonpayable",
      "type": "function"
    },
    {
      "inputs": [],
      "name": "togglePublicSale",
      "outputs": [],
      "stateMutability": "nonpayable",
      "type": "function"
    },
    {
      "inputs": [
        {
          "internalType": "uint256",
          "name": "tokenId",
          "type": "uint256"
        }
      ],
      "name": "tokenURI",
      "outputs": [
        {
          "internalType": "string",
          "name": "",
          "type": "string"
        }
      ],
      "stateMutability": "view",
      "type": "function"
    },
    {
      "inputs": [],
      "name": "totalSupply",
      "outputs": [
        {
          "internalType": "uint256",
          "name": "",
          "type": "uint256"
        }
      ],
      "stateMutability": "view",
      "type": "function"
    },
    {
      "inputs": [
        {
          "internalType": "address",
          "name": "from",
          "type": "address"
        },
        {
          "internalType": "address",
          "name": "to",
          "type": "address"
        },
        {
          "internalType": "uint256",
          "name": "tokenId",
          "type": "uint256"
        }
      ],
      "name": "transferFrom",
      "outputs": [],
      "stateMutability": "payable",
      "type": "function"
    },
    {
      "inputs": [
        {
          "internalType": "address",
          "name": "newOwner",
          "type": "address"
        }
      ],
      "name": "transferOwnership",
      "outputs": [],
      "stateMutability": "nonpayable",
      "type": "function"
    },
    {
      "inputs": [],
      "name": "withdraw",
      "outputs": [],
      "stateMutability": "nonpayable",
      "type": "function"
    }
  ],
  "bytecode": "0x608060405266038d7ea4c68000600a5566038d7ea4c68000600b55610dac600c55610dac600d5566038d7ea4c68000600e556064600f60006101000a81548160ff021916908360ff16021790555060405180602001604052806000815250601090805190602001906200007492919062000448565b503480156200008257600080fd5b50733cc6cdda760b79bafa08df41ecfa224f810dceb660016040518060400160405280600581526020017f50697463680000000000000000000000000000000000000000000000000000008152506040518060400160405280600381526020017f505732000000000000000000000000000000000000000000000000000000000081525081600290805190602001906200011e92919062000448565b5080600390805190602001906200013792919062000448565b50620001486200037560201b60201c565b600081905550505062000170620001646200037a60201b60201c565b6200038260201b60201c565b600160098190555060006daaeb6d7670e522a718067333cd4e73ffffffffffffffffffffffffffffffffffffffff163b11156200036d57801562000233576daaeb6d7670e522a718067333cd4e73ffffffffffffffffffffffffffffffffffffffff16637d3e3dbe30846040518363ffffffff1660e01b8152600401620001f99291906200053d565b600060405180830381600087803b1580156200021457600080fd5b505af115801562000229573d6000803e3d6000fd5b505050506200036c565b600073ffffffffffffffffffffffffffffffffffffffff168273ffffffffffffffffffffffffffffffffffffffff1614620002ed576daaeb6d7670e522a718067333cd4e73ffffffffffffffffffffffffffffffffffffffff1663a0af290330846040518363ffffffff1660e01b8152600401620002b39291906200053d565b600060405180830381600087803b158015620002ce57600080fd5b505af1158015620002e3573d6000803e3d6000fd5b505050506200036b565b6daaeb6d7670e522a718067333cd4e73ffffffffffffffffffffffffffffffffffffffff16634420e486306040518263ffffffff1660e01b81526004016200033691906200056a565b600060405180830381600087803b1580156200035157600080fd5b505af115801562000366573d6000803e3d6000fd5b505050505b5b5b5050620005eb565b600090565b600033905090565b6000600860009054906101000a900473ffffffffffffffffffffffffffffffffffffffff16905081600860006101000a81548173ffffffffffffffffffffffffffffffffffffffff021916908373ffffffffffffffffffffffffffffffffffffffff1602179055508173ffffffffffffffffffffffffffffffffffffffff168173ffffffffffffffffffffffffffffffffffffffff167f8be0079c531659141344cd1fd0a4f28419497f9722a3daafe3b4186f6b6457e060405160405180910390a35050565b8280546200045690620005b6565b90600052602060002090601f0160209004810192826200047a5760008555620004c6565b82601f106200049557805160ff1916838001178555620004c6565b82800160010185558215620004c6579182015b82811115620004c5578251825591602001919060010190620004a8565b5b509050620004d59190620004d9565b5090565b5b80821115620004f4576000816000905550600101620004da565b5090565b600073ffffffffffffffffffffffffffffffffffffffff82169050919050565b60006200052582620004f8565b9050919050565b620005378162000518565b82525050565b60006040820190506200055460008301856200052c565b6200056360208301846200052c565b9392505050565b60006020820190506200058160008301846200052c565b92915050565b7f4e487b7100000000000000000000000000000000000000000000000000000000600052602260045260246000fd5b60006002820490506001821680620005cf57607f821691505b602082108103620005e557620005e462000587565b5b50919050565b6135f580620005fb6000396000f3fe6080604052600436106102675760003560e01c8063715018a611610144578063c87b56dd116100b6578063e53c16561161007a578063e53c165614610855578063e985e9c514610880578063eddaa3ab146108bd578063f218c01c146108e8578063f2fde38b14610904578063fd46d7871461092d57610267565b8063c87b56dd14610796578063d5abeb01146107d3578063d8fd04cf146107fe578063db2e21bc14610827578063e222c7f91461083e57610267565b80639303900e116101085780639303900e146106b9578063943eb504146106d057806395d89b41146106fb578063a22cb46514610726578063b88d4fde1461074f578063bc8893b41461076b57610267565b8063715018a61461060c5780637ec2402f146106235780638693da201461063a5780638da5cb5b146106655780638dbb7c061461069057610267565b8063339b1c08116101dd57806353135ca0116101a157806353135ca0146104f957806355f804b3146105245780636352211e1461054d5780636ecd23061461058a5780636f8b44b0146105a657806370a08231146105cf57610267565b8063339b1c081461045957806334393743146104845780633ccfd60b1461049b57806341f43434146104b257806342842e0e146104dd57610267565b806318160ddd1161022f57806318160ddd1461036a578063231b071614610395578063239c70ae146103be57806323b872dd146103e957806328d7b276146104055780632a23d07d1461042e57610267565b806301ffc9a71461026c57806306fdde03146102a9578063081812fc146102d4578063095ea7b3146103115780630fc920961461032d575b600080fd5b34801561027857600080fd5b50610293600480360381019061028e91906127de565b610956565b6040516102a09190612826565b60405180910390f35b3480156102b557600080fd5b506102be6109e8565b6040516102cb91906128da565b60405180910390f35b3480156102e057600080fd5b506102fb60048036038101906102f69190612932565b610a7a565b60405161030891906129a0565b60405180910390f35b61032b600480360381019061032691906129e7565b610ad8565b005b34801561033957600080fd5b50610354600480360381019061034f9190612a8c565b610ae8565b6040516103619190612826565b60405180910390f35b34801561037657600080fd5b5061037f610b67565b60405161038c9190612afb565b60405180910390f35b3480156103a157600080fd5b506103bc60048036038101906103b79190612932565b610b7e565b005b3480156103ca57600080fd5b506103d3610b90565b6040516103e09190612b32565b60405180910390f35b61040360048036038101906103fe9190612b4d565b610ba3565b005b34801561041157600080fd5b5061042c60048036038101906104279190612bd6565b610bf2565b005b34801561043a57600080fd5b50610443610c04565b6040516104509190612afb565b60405180910390f35b34801561046557600080fd5b5061046e610c0a565b60405161047b9190612afb565b60405180910390f35b34801561049057600080fd5b50610499610c10565b005b3480156104a757600080fd5b506104b0610c44565b005b3480156104be57600080fd5b506104c7610cae565b6040516104d49190612c62565b60405180910390f35b6104f760048036038101906104f29190612b4d565b610cc0565b005b34801561050557600080fd5b5061050e610d0f565b60405161051b9190612826565b60405180910390f35b34801561053057600080fd5b5061054b60048036038101906105469190612cd3565b610d22565b005b34801561055957600080fd5b50610574600480360381019061056f9190612932565b610d40565b60405161058191906129a0565b60405180910390f35b6105a4600480360381019061059f9190612d4c565b610d52565b005b3480156105b257600080fd5b506105cd60048036038101906105c89190612932565b610f09565b005b3480156105db57600080fd5b506105f660048036038101906105f19190612d79565b610f62565b6040516106039190612afb565b60405180910390f35b34801561061857600080fd5b50610621610ff9565b005b34801561062f57600080fd5b5061063861100d565b005b34801561064657600080fd5b5061064f611079565b60405161065c9190612afb565b60405180910390f35b34801561067157600080fd5b5061067a61107f565b60405161068791906129a0565b60405180910390f35b34801561069c57600080fd5b506106b760048036038101906106b29190612932565b6110a9565b005b3480156106c557600080fd5b506106ce6110bb565b005b3480156106dc57600080fd5b506106e5611170565b6040516106f29190612826565b60405180910390f35b34801561070757600080fd5b50610710611183565b60405161071d91906128da565b60405180910390f35b34801561073257600080fd5b5061074d60048036038101906107489190612dd2565b611215565b005b61076960048036038101906107649190612f42565b611320565b005b34801561077757600080fd5b50610780611371565b60405161078d9190612826565b60405180910390f35b3480156107a257600080fd5b506107bd60048036038101906107b89190612932565b611384565b6040516107ca91906128da565b60405180910390f35b3480156107df57600080fd5b506107e8611401565b6040516107f59190612afb565b60405180910390f35b34801561080a57600080fd5b5061082560048036038101906108209190612932565b611407565b005b34801561083357600080fd5b5061083c611455565b005b34801561084a57600080fd5b50610853611505565b005b34801561086157600080fd5b5061086a611539565b6040516108779190612afb565b60405180910390f35b34801561088c57600080fd5b506108a760048036038101906108a29190612fc5565b61153f565b6040516108b49190612826565b60405180910390f35b3480156108c957600080fd5b506108d26115d3565b6040516108df9190612826565b60405180910390f35b61090260048036038101906108fd9190613005565b6115e6565b005b34801561091057600080fd5b5061092b60048036038101906109269190612d79565b611849565b005b34801561093957600080fd5b50610954600480360381019061094f9190612d4c565b6118cc565b005b60006301ffc9a760e01b827bffffffffffffffffffffffffffffffffffffffffffffffffffffffff191614806109b157506380ac58cd60e01b827bffffffffffffffffffffffffffffffffffffffffffffffffffffffff1916145b806109e15750635b5e139f60e01b827bffffffffffffffffffffffffffffffffffffffffffffffffffffffff1916145b9050919050565b6060600280546109f790613094565b80601f0160208091040260200160405190810160405280929190818152602001828054610a2390613094565b8015610a705780601f10610a4557610100808354040283529160200191610a70565b820191906000526020600020905b815481529060010190602001808311610a5357829003601f168201915b5050505050905090565b6000610a85826118f2565b610a9a57610a9963cf4700e460e01b61196b565b5b6006600083815260200190815260200160002060000160009054906101000a900473ffffffffffffffffffffffffffffffffffffffff169050919050565b610ae482826001611975565b5050565b6000610b5e838380806020026020016040519081016040528093929190818152602001838360200280828437600081840152601f19601f8201169050808301925050505050505060125486604051602001610b43919061310d565b60405160208183030381529060405280519060200120611aa4565b90509392505050565b6000610b71611abb565b6001546000540303905090565b610b86611ac0565b80600a8190555050565b600f60009054906101000a900460ff1681565b823373ffffffffffffffffffffffffffffffffffffffff168173ffffffffffffffffffffffffffffffffffffffff1614610be157610be033611b3e565b5b610bec848484611c3b565b50505050565b610bfa611ac0565b8060128190555050565b600a5481565b600e5481565b610c18611ac0565b601160009054906101000a900460ff1615601160006101000a81548160ff021916908315150217905550565b610c4c611ac0565b610c54611efc565b60004790504790503373ffffffffffffffffffffffffffffffffffffffff166108fc829081150290604051600060405180830381858888f19350505050158015610ca2573d6000803e3d6000fd5b5050610cac611f4b565b565b6daaeb6d7670e522a718067333cd4e81565b823373ffffffffffffffffffffffffffffffffffffffff168173ffffffffffffffffffffffffffffffffffffffff1614610cfe57610cfd33611b3e565b5b610d09848484611f55565b50505050565b601160009054906101000a900460ff1681565b610d2a611ac0565b818160109190610d3b9291906126cf565b505050565b6000610d4b82611f75565b9050919050565b3273ffffffffffffffffffffffffffffffffffffffff163373ffffffffffffffffffffffffffffffffffffffff1614610db7576040517f875fdad700000000000000000000000000000000000000000000000000000000815260040160405180910390fd5b601160019054906101000a900460ff16610dfd576040517fc7d08f0400000000000000000000000000000000000000000000000000000000815260040160405180910390fd5b600d548160ff16610e0c610b67565b610e169190613157565b1115610e4e576040517f8a164f6300000000000000000000000000000000000000000000000000000000815260040160405180910390fd5b600f60009054906101000a900460ff1660ff168160ff16610e6e33612061565b610e789190613157565b1115610eb0576040517ff560625a00000000000000000000000000000000000000000000000000000000815260040160405180910390fd5b8060ff16600b54610ec191906131ad565b3414610ef9576040517f1101129400000000000000000000000000000000000000000000000000000000815260040160405180910390fd5b610f06338260ff166120b8565b50565b610f11611ac0565b601360009054906101000a900460ff1615610f58576040517fea0f61e000000000000000000000000000000000000000000000000000000000815260040160405180910390fd5b80600d8190555050565b60008073ffffffffffffffffffffffffffffffffffffffff168273ffffffffffffffffffffffffffffffffffffffff1603610fa857610fa7638f4eb60460e01b61196b565b5b67ffffffffffffffff600560008473ffffffffffffffffffffffffffffffffffffffff1673ffffffffffffffffffffffffffffffffffffffff16815260200190815260200160002054169050919050565b611001611ac0565b61100b600061221b565b565b611015611ac0565b601360009054906101000a900460ff161561105c576040517fea0f61e000000000000000000000000000000000000000000000000000000000815260040160405180910390fd5b6001601360006101000a81548160ff021916908315150217905550565b600b5481565b6000600860009054906101000a900473ffffffffffffffffffffffffffffffffffffffff16905090565b6110b1611ac0565b80600b8190555050565b6110c3611efc565b7346685d1f7a86f037a019ec33a4d29b491d2e645d73ffffffffffffffffffffffffffffffffffffffff163373ffffffffffffffffffffffffffffffffffffffff161461113c576040517f1f95c98500000000000000000000000000000000000000000000000000000000815260040160405180910390fd5b601160029054906101000a900460ff1615601160026101000a81548160ff02191690831515021790555061116e611f4b565b565b601360009054906101000a900460ff1681565b60606003805461119290613094565b80601f01602080910402602001604051908101604052809291908181526020018280546111be90613094565b801561120b5780601f106111e05761010080835404028352916020019161120b565b820191906000526020600020905b8154815290600101906020018083116111ee57829003601f168201915b5050505050905090565b80600760006112226122e1565b73ffffffffffffffffffffffffffffffffffffffff1673ffffffffffffffffffffffffffffffffffffffff16815260200190815260200160002060008473ffffffffffffffffffffffffffffffffffffffff1673ffffffffffffffffffffffffffffffffffffffff16815260200190815260200160002060006101000a81548160ff0219169083151502179055508173ffffffffffffffffffffffffffffffffffffffff166112cf6122e1565b73ffffffffffffffffffffffffffffffffffffffff167f17307eab39ab6107e8899845ad3d59bd9653f200f220920489ca2b5937696c31836040516113149190612826565b60405180910390a35050565b833373ffffffffffffffffffffffffffffffffffffffff168173ffffffffffffffffffffffffffffffffffffffff161461135e5761135d33611b3e565b5b61136a858585856122e9565b5050505050565b601160019054906101000a900460ff1681565b606061138f826118f2565b6113a4576113a363a14c4b5060e01b61196b565b5b60006113ae61233b565b905060008151036113ce57604051806020016040528060008152506113f9565b806113d8846123cd565b6040516020016113e9929190613243565b6040516020818303038152906040525b915050919050565b600d5481565b61140f611ac0565b600d5481111561144b576040517f9f8b8c7e00000000000000000000000000000000000000000000000000000000815260040160405180910390fd5b80600c8190555050565b61145d611ac0565b611465611efc565b601160029054906101000a900460ff166114ab576040517f93282d7900000000000000000000000000000000000000000000000000000000815260040160405180910390fd5b60004790504790503373ffffffffffffffffffffffffffffffffffffffff166108fc829081150290604051600060405180830381858888f193505050501580156114f9573d6000803e3d6000fd5b5050611503611f4b565b565b61150d611ac0565b601160019054906101000a900460ff1615601160016101000a81548160ff021916908315150217905550565b600c5481565b6000600760008473ffffffffffffffffffffffffffffffffffffffff1673ffffffffffffffffffffffffffffffffffffffff16815260200190815260200160002060008373ffffffffffffffffffffffffffffffffffffffff1673ffffffffffffffffffffffffffffffffffffffff16815260200190815260200160002060009054906101000a900460ff16905092915050565b601160029054906101000a900460ff1681565b3273ffffffffffffffffffffffffffffffffffffffff163373ffffffffffffffffffffffffffffffffffffffff161461164b576040517f875fdad700000000000000000000000000000000000000000000000000000000815260040160405180910390fd5b601160009054906101000a900460ff16611691576040517fe3c26abe00000000000000000000000000000000000000000000000000000000815260040160405180910390fd5b600c548360ff166116a0610b67565b6116aa9190613157565b11156116e2576040517f8a164f6300000000000000000000000000000000000000000000000000000000815260040160405180910390fd5b611756828280806020026020016040519081016040528093929190818152602001838360200280828437600081840152601f19601f820116905080830192505050505050506012543360405160200161173b919061310d565b60405160208183030381529060405280519060200120611aa4565b61178c576040517f06fb10a900000000000000000000000000000000000000000000000000000000815260040160405180910390fd5b600f60009054906101000a900460ff1660ff168360ff166117ac33612061565b6117b69190613157565b11156117ee576040517ff560625a00000000000000000000000000000000000000000000000000000000815260040160405180910390fd5b8260ff16600a546117ff91906131ad565b3414611837576040517f1101129400000000000000000000000000000000000000000000000000000000815260040160405180910390fd5b611844338460ff166120b8565b505050565b611851611ac0565b600073ffffffffffffffffffffffffffffffffffffffff168173ffffffffffffffffffffffffffffffffffffffff16036118c0576040517f08c379a00000000000000000000000000000000000000000000000000000000081526004016118b7906132d9565b60405180910390fd5b6118c98161221b565b50565b6118d4611ac0565b80600f60006101000a81548160ff021916908360ff16021790555050565b6000816118fd611abb565b11611966576000548210156119655760005b600060046000858152602001908152602001600020549150810361193e5782611937906132f9565b925061190f565b60007c01000000000000000000000000000000000000000000000000000000008216149150505b5b919050565b8060005260046000fd5b600061198083610d40565b90508180156119c257508073ffffffffffffffffffffffffffffffffffffffff166119a96122e1565b73ffffffffffffffffffffffffffffffffffffffff1614155b156119ee576119d8816119d36122e1565b61153f565b6119ed576119ec63cfb3b94260e01b61196b565b5b5b836006600085815260200190815260200160002060000160006101000a81548173ffffffffffffffffffffffffffffffffffffffff021916908373ffffffffffffffffffffffffffffffffffffffff160217905550828473ffffffffffffffffffffffffffffffffffffffff168273ffffffffffffffffffffffffffffffffffffffff167f8c5be1e5ebec7d5bd14f71427d1e84f3dd0314c0f7b2291e5b200ac8c7c3b92560405160405180910390a450505050565b600082611ab1858461241d565b1490509392505050565b600090565b611ac8612473565b73ffffffffffffffffffffffffffffffffffffffff16611ae661107f565b73ffffffffffffffffffffffffffffffffffffffff1614611b3c576040517f08c379a0000000000000000000000000000000000000000000000000000000008152600401611b339061336e565b60405180910390fd5b565b60006daaeb6d7670e522a718067333cd4e73ffffffffffffffffffffffffffffffffffffffff163b1115611c38576daaeb6d7670e522a718067333cd4e73ffffffffffffffffffffffffffffffffffffffff1663c617113430836040518363ffffffff1660e01b8152600401611bb592919061338e565b602060405180830381865afa158015611bd2573d6000803e3d6000fd5b505050506040513d601f19601f82011682018060405250810190611bf691906133cc565b611c3757806040517fede71dcc000000000000000000000000000000000000000000000000000000008152600401611c2e91906129a0565b60405180910390fd5b5b50565b6000611c4682611f75565b905073ffffffffffffffffffffffffffffffffffffffff8473ffffffffffffffffffffffffffffffffffffffff161693508373ffffffffffffffffffffffffffffffffffffffff168173ffffffffffffffffffffffffffffffffffffffff1614611cbb57611cba63a114810060e01b61196b565b5b600080611cc78461247b565b91509150611cdd8187611cd86122e1565b6124a2565b611d0857611cf286611ced6122e1565b61153f565b611d0757611d066359c896be60e01b61196b565b5b5b611d1586868660016124e6565b8015611d2057600082555b600560008773ffffffffffffffffffffffffffffffffffffffff1673ffffffffffffffffffffffffffffffffffffffff168152602001908152602001600020600081546001900391905081905550600560008673ffffffffffffffffffffffffffffffffffffffff1673ffffffffffffffffffffffffffffffffffffffff1681526020019081526020016000206000815460010191905081905550611dee85611dca8888876124ec565b7c020000000000000000000000000000000000000000000000000000000017612514565b600460008681526020019081526020016000208190555060007c0200000000000000000000000000000000000000000000000000000000841603611e745760006001850190506000600460008381526020019081526020016000205403611e72576000548114611e71578360046000838152602001908152602001600020819055505b5b505b600073ffffffffffffffffffffffffffffffffffffffff8673ffffffffffffffffffffffffffffffffffffffff161690508481887fddf252ad1be2c89b69c2b068fc378daa952ba7f163c4a11628f55a4df523b3ef600080a460008103611ee657611ee563ea553b3460e01b61196b565b5b611ef3878787600161253f565b50505050505050565b600260095403611f41576040517f08c379a0000000000000000000000000000000000000000000000000000000008152600401611f3890613445565b60405180910390fd5b6002600981905550565b6001600981905550565b611f7083838360405180602001604052806000815250611320565b505050565b600081611f80611abb565b1161204b576004600083815260200190815260200160002054905060008103612022576000548210611fbd57611fbc63df2d9b4260e01b61196b565b5b5b6004600083600190039350838152602001908152602001600020549050600081031561201d5760007c01000000000000000000000000000000000000000000000000000000008216031561205c5761201c63df2d9b4260e01b61196b565b5b611fbe565b60007c01000000000000000000000000000000000000000000000000000000008216031561205c575b61205b63df2d9b4260e01b61196b565b5b919050565b600067ffffffffffffffff6040600560008573ffffffffffffffffffffffffffffffffffffffff1673ffffffffffffffffffffffffffffffffffffffff16815260200190815260200160002054901c169050919050565b600080549050600082036120d7576120d663b562e8dd60e01b61196b565b5b6120e460008483856124e6565b612104836120f560008660006124ec565b6120fe85612545565b17612514565b6004600083815260200190815260200160002081905550600160406001901b178202600560008573ffffffffffffffffffffffffffffffffffffffff1673ffffffffffffffffffffffffffffffffffffffff16815260200190815260200160002060008282540192505081905550600073ffffffffffffffffffffffffffffffffffffffff8473ffffffffffffffffffffffffffffffffffffffff16169050600081036121bc576121bb632e07630060e01b61196b565b5b6000838301905060008390505b808360007fddf252ad1be2c89b69c2b068fc378daa952ba7f163c4a11628f55a4df523b3ef600080a48181600101915081036121c95781600081905550505050612216600084838561253f565b505050565b6000600860009054906101000a900473ffffffffffffffffffffffffffffffffffffffff16905081600860006101000a81548173ffffffffffffffffffffffffffffffffffffffff021916908373ffffffffffffffffffffffffffffffffffffffff1602179055508173ffffffffffffffffffffffffffffffffffffffff168173ffffffffffffffffffffffffffffffffffffffff167f8be0079c531659141344cd1fd0a4f28419497f9722a3daafe3b4186f6b6457e060405160405180910390a35050565b600033905090565b6122f4848484610ba3565b60008373ffffffffffffffffffffffffffffffffffffffff163b146123355761231f84848484612555565b6123345761233363d1a57ed660e01b61196b565b5b5b50505050565b60606010805461234a90613094565b80601f016020809104026020016040519081016040528092919081815260200182805461237690613094565b80156123c35780601f10612398576101008083540402835291602001916123c3565b820191906000526020600020905b8154815290600101906020018083116123a657829003601f168201915b5050505050905090565b606060a060405101806040526020810391506000825281835b60011561240857600184039350600a81066030018453600a81049050806123e6575b50828103602084039350808452505050919050565b60008082905060005b8451811015612468576124538286838151811061244657612445613465565b5b6020026020010151612684565b9150808061246090613494565b915050612426565b508091505092915050565b600033905090565b60008060006006600085815260200190815260200160002090508092508254915050915091565b600073ffffffffffffffffffffffffffffffffffffffff8316925073ffffffffffffffffffffffffffffffffffffffff821691508382148383141790509392505050565b50505050565b60008060e883901c905060e86125038686846126af565b62ffffff16901b9150509392505050565b600073ffffffffffffffffffffffffffffffffffffffff83169250814260a01b178317905092915050565b50505050565b60006001821460e11b9050919050565b60008373ffffffffffffffffffffffffffffffffffffffff1663150b7a0261257b6122e1565b8786866040518563ffffffff1660e01b815260040161259d9493929190613531565b6020604051808303816000875af19250505080156125d957506040513d601f19601f820116820180604052508101906125d69190613592565b60015b612631573d8060008114612609576040519150601f19603f3d011682016040523d82523d6000602084013e61260e565b606091505b5060008151036126295761262863d1a57ed660e01b61196b565b5b805181602001fd5b63150b7a0260e01b7bffffffffffffffffffffffffffffffffffffffffffffffffffffffff1916817bffffffffffffffffffffffffffffffffffffffffffffffffffffffff191614915050949350505050565b600081831061269c5761269782846126b8565b6126a7565b6126a683836126b8565b5b905092915050565b60009392505050565b600082600052816020526040600020905092915050565b8280546126db90613094565b90600052602060002090601f0160209004810192826126fd5760008555612744565b82601f1061271657803560ff1916838001178555612744565b82800160010185558215612744579182015b82811115612743578235825591602001919060010190612728565b5b5090506127519190612755565b5090565b5b8082111561276e576000816000905550600101612756565b5090565b6000604051905090565b600080fd5b600080fd5b60007fffffffff0000000000000000000000000000000000000000000000000000000082169050919050565b6127bb81612786565b81146127c657600080fd5b50565b6000813590506127d8816127b2565b92915050565b6000602082840312156127f4576127f361277c565b5b6000612802848285016127c9565b91505092915050565b60008115159050919050565b6128208161280b565b82525050565b600060208201905061283b6000830184612817565b92915050565b600081519050919050565b600082825260208201905092915050565b60005b8381101561287b578082015181840152602081019050612860565b8381111561288a576000848401525b50505050565b6000601f19601f8301169050919050565b60006128ac82612841565b6128b6818561284c565b93506128c681856020860161285d565b6128cf81612890565b840191505092915050565b600060208201905081810360008301526128f481846128a1565b905092915050565b6000819050919050565b61290f816128fc565b811461291a57600080fd5b50565b60008135905061292c81612906565b92915050565b6000602082840312156129485761294761277c565b5b60006129568482850161291d565b91505092915050565b600073ffffffffffffffffffffffffffffffffffffffff82169050919050565b600061298a8261295f565b9050919050565b61299a8161297f565b82525050565b60006020820190506129b56000830184612991565b92915050565b6129c48161297f565b81146129cf57600080fd5b50565b6000813590506129e1816129bb565b92915050565b600080604083850312156129fe576129fd61277c565b5b6000612a0c858286016129d2565b9250506020612a1d8582860161291d565b9150509250929050565b600080fd5b600080fd5b600080fd5b60008083601f840112612a4c57612a4b612a27565b5b8235905067ffffffffffffffff811115612a6957612a68612a2c565b5b602083019150836020820283011115612a8557612a84612a31565b5b9250929050565b600080600060408486031215612aa557612aa461277c565b5b6000612ab3868287016129d2565b935050602084013567ffffffffffffffff811115612ad457612ad3612781565b5b612ae086828701612a36565b92509250509250925092565b612af5816128fc565b82525050565b6000602082019050612b106000830184612aec565b92915050565b600060ff82169050919050565b612b2c81612b16565b82525050565b6000602082019050612b476000830184612b23565b92915050565b600080600060608486031215612b6657612b6561277c565b5b6000612b74868287016129d2565b9350506020612b85868287016129d2565b9250506040612b968682870161291d565b9150509250925092565b6000819050919050565b612bb381612ba0565b8114612bbe57600080fd5b50565b600081359050612bd081612baa565b92915050565b600060208284031215612bec57612beb61277c565b5b6000612bfa84828501612bc1565b91505092915050565b6000819050919050565b6000612c28612c23612c1e8461295f565b612c03565b61295f565b9050919050565b6000612c3a82612c0d565b9050919050565b6000612c4c82612c2f565b9050919050565b612c5c81612c41565b82525050565b6000602082019050612c776000830184612c53565b92915050565b60008083601f840112612c9357612c92612a27565b5b8235905067ffffffffffffffff811115612cb057612caf612a2c565b5b602083019150836001820283011115612ccc57612ccb612a31565b5b9250929050565b60008060208385031215612cea57612ce961277c565b5b600083013567ffffffffffffffff811115612d0857612d07612781565b5b612d1485828601612c7d565b92509250509250929050565b612d2981612b16565b8114612d3457600080fd5b50565b600081359050612d4681612d20565b92915050565b600060208284031215612d6257612d6161277c565b5b6000612d7084828501612d37565b91505092915050565b600060208284031215612d8f57612d8e61277c565b5b6000612d9d848285016129d2565b91505092915050565b612daf8161280b565b8114612dba57600080fd5b50565b600081359050612dcc81612da6565b92915050565b60008060408385031215612de957612de861277c565b5b6000612df7858286016129d2565b9250506020612e0885828601612dbd565b9150509250929050565b600080fd5b7f4e487b7100000000000000000000000000000000000000000000000000000000600052604160045260246000fd5b612e4f82612890565b810181811067ffffffffffffffff82111715612e6e57612e6d612e17565b5b80604052505050565b6000612e81612772565b9050612e8d8282612e46565b919050565b600067ffffffffffffffff821115612ead57612eac612e17565b5b612eb682612890565b9050602081019050919050565b82818337600083830152505050565b6000612ee5612ee084612e92565b612e77565b905082815260208101848484011115612f0157612f00612e12565b5b612f0c848285612ec3565b509392505050565b600082601f830112612f2957612f28612a27565b5b8135612f39848260208601612ed2565b91505092915050565b60008060008060808587031215612f5c57612f5b61277c565b5b6000612f6a878288016129d2565b9450506020612f7b878288016129d2565b9350506040612f8c8782880161291d565b925050606085013567ffffffffffffffff811115612fad57612fac612781565b5b612fb987828801612f14565b91505092959194509250565b60008060408385031215612fdc57612fdb61277c565b5b6000612fea858286016129d2565b9250506020612ffb858286016129d2565b9150509250929050565b60008060006040848603121561301e5761301d61277c565b5b600061302c86828701612d37565b935050602084013567ffffffffffffffff81111561304d5761304c612781565b5b61305986828701612a36565b92509250509250925092565b7f4e487b7100000000000000000000000000000000000000000000000000000000600052602260045260246000fd5b600060028204905060018216806130ac57607f821691505b6020821081036130bf576130be613065565b5b50919050565b60008160601b9050919050565b60006130dd826130c5565b9050919050565b60006130ef826130d2565b9050919050565b6131076131028261297f565b6130e4565b82525050565b600061311982846130f6565b60148201915081905092915050565b7f4e487b7100000000000000000000000000000000000000000000000000000000600052601160045260246000fd5b6000613162826128fc565b915061316d836128fc565b9250827fffffffffffffffffffffffffffffffffffffffffffffffffffffffffffffffff038211156131a2576131a1613128565b5b828201905092915050565b60006131b8826128fc565b91506131c3836128fc565b9250817fffffffffffffffffffffffffffffffffffffffffffffffffffffffffffffffff04831182151516156131fc576131fb613128565b5b828202905092915050565b600081905092915050565b600061321d82612841565b6132278185613207565b935061323781856020860161285d565b80840191505092915050565b600061324f8285613212565b915061325b8284613212565b91508190509392505050565b7f4f776e61626c653a206e6577206f776e657220697320746865207a65726f206160008201527f6464726573730000000000000000000000000000000000000000000000000000602082015250565b60006132c360268361284c565b91506132ce82613267565b604082019050919050565b600060208201905081810360008301526132f2816132b6565b9050919050565b6000613304826128fc565b91506000820361331757613316613128565b5b600182039050919050565b7f4f776e61626c653a2063616c6c6572206973206e6f7420746865206f776e6572600082015250565b600061335860208361284c565b915061336382613322565b602082019050919050565b600060208201905081810360008301526133878161334b565b9050919050565b60006040820190506133a36000830185612991565b6133b06020830184612991565b9392505050565b6000815190506133c681612da6565b92915050565b6000602082840312156133e2576133e161277c565b5b60006133f0848285016133b7565b91505092915050565b7f5265656e7472616e637947756172643a207265656e7472616e742063616c6c00600082015250565b600061342f601f8361284c565b915061343a826133f9565b602082019050919050565b6000602082019050818103600083015261345e81613422565b9050919050565b7f4e487b7100000000000000000000000000000000000000000000000000000000600052603260045260246000fd5b600061349f826128fc565b91507fffffffffffffffffffffffffffffffffffffffffffffffffffffffffffffffff82036134d1576134d0613128565b5b600182019050919050565b600081519050919050565b600082825260208201905092915050565b6000613503826134dc565b61350d81856134e7565b935061351d81856020860161285d565b61352681612890565b840191505092915050565b60006080820190506135466000830187612991565b6135536020830186612991565b6135606040830185612aec565b818103606083015261357281846134f8565b905095945050505050565b60008151905061358c816127b2565b92915050565b6000602082840312156135a8576135a761277c565b5b60006135b68482850161357d565b9150509291505056fea2646970667358221220802bddf67fc69f5131e43a0fdcc59a883d4249e33d93698342d5636aebc19df664736f6c634300080d0033",
  "linkReferences": {},
  "deployedLinkReferences": {}
}